:100000000C942A000C9494010C9447000C94470023
:100010000C9447000C9447000C9447000C94470044
:100020000C9447000C9447000C9447000C94470034
:100030000C9447000C9447000C9447000C94470024
:100040000C9447000C9447000C9447000C94470014
:100050000C94470011241FBECFE5D8E0DEBFCDBF12
:1000600010E0A0E6B0E0EAE9FAE002C005900D92E7
:10007000A837B107D9F710E0A8E7B0E001C01D929A
:10008000AD37B107E1F70E9472040C944B050C9454
:100090000000DF93CF93CDB7DEB729970FB6F89462
:1000A000DEBF0FBECDBF8A836B8381E089838A81E7
:1000B000833008F015C18B81843008F011C18A812A
:1000C000882309F06BC08B81282F30E0398728877F
:1000D000888599858130910521F1288539852230DF
:1000E00031052CF488859985009761F047C02885F3
:1000F00039852230310521F1888599858330910534
:1001000071F13CC0A5E5B0E0E5E5F0E080818E7FCF
:100110008C93A5E5B0E0E5E5F0E080818D7F8C93E0
:100120002EC0A5E5B0E0E5E5F0E0808181608C932C
:10013000A5E5B0E0E5E5F0E080818D7F8C931FC000
:10014000A5E5B0E0E5E5F0E080818E7F8C93A5E544
:10015000B0E0E5E5F0E0808182608C9310C0A5E519
:10016000B0E0E5E5F0E0808181608C93A5E5B0E04A
:10017000E5E5F0E0808182608C9301C01982ABE5F7
:10018000B0E0EBE5F0E0808180648C93AAE5B0E01C
:10019000EAE5F0E0808180648C93A3C08A8181309D
:1001A00009F06BC08B81282F30E03F832E838E8136
:1001B0009F818130910521F12E813F8122303105CF
:1001C0002CF48E819F81009761F047C02E813F8182
:1001D0002230310521F18E819F818330910571F1AB
:1001E0003CC0A5E5B0E0E5E5F0E080818B7F8C9335
:1001F000A5E5B0E0E5E5F0E08081877F8C932EC037
:10020000A5E5B0E0E5E5F0E0808184608C93A5E5AC
:10021000B0E0E5E5F0E08081877F8C931FC0A5E525
:10022000B0E0E5E5F0E080818B7F8C93A5E5B0E060
:10023000E5E5F0E0808188608C9310C0A5E5B0E032
:10024000E5E5F0E0808184608C93A5E5B0E0E5E52C
:10025000F0E0808188608C9301C01982ABE5B0E04A
:10026000EBE5F0E0808180688C93AAE5B0E0EAE5F8
:10027000F0E0808180688C9334C08A81823089F577
:100280008B81282F30E03D832C838C819D818230AF
:10029000910531F02C813D812330310549F010C0AA
:1002A000A4E5B0E0E4E5F0E080818F7B8C9309C0A9
:1002B000A4E5B0E0E4E5F0E0808180648C9301C0C7
:1002C0001982ABE5B0E0EBE5F0E0808180628C93D1
:1002D000AAE5B0E0EAE5F0E0808180628C9301C09D
:1002E0001982AFE5B0E0EFE5F0E0808180688C93A3
:1002F000898129960FB6F894DEBF0FBECDBFCF918E
:10030000DF910895DF93CF9300D0CDB7DEB79A8306
:10031000898389819A8190937900809378000F90E6
:100320000F90CF91DF9108951F920F920FB60F9209
:1003300011242F933F934F935F936F937F938F93EA
:100340009F93AF93BF93EF93FF93DF93CF93CDB77B
:10035000DEB7E0917800F09179000995CF91DF91B7
:10036000FF91EF91BF91AF919F918F917F916F918D
:100370005F914F913F912F910F900FBE0F901F9063
:100380001895DF93CF9300D00F92CDB7DEB78A8355
:100390006B8319828A81843020F58B81823008F545
:1003A0008B81882369F48A81882F90E0880F991FB8
:1003B000FC01E859FF4F0190F081E02D108213C03D
:1003C0008B81813081F48A81882F90E0880F991F7A
:1003D000FC01E859FF4F0190F081E02D8FEF808301
:1003E00002C08FEF898389810F900F900F90CF917A
:1003F000DF910895DF93CF9300D00F92CDB7DEB792
:100400008A836B8319828A81843070F48A81882F71
:1004100090E0880F991FFC01E05AFF4F0190F08196
:10042000E02D8B81808302C08FEF898389810F90BB
:100430000F900F90CF91DF910895DF93CF9300D06D
:1004400000D0CDB7DEB78A837C836B8319828A8123
:10045000843080F48A81882F90E0880F991FFC01F6
:10046000E059FF4F0190F081E02D8081EB81FC810C
:10047000808302C08FEF898389810F900F900F9046
:100480000F90CF91DF910895DF93CF9300D000D0EC
:100490000F92CDB7DEB78C836D831B828C81803247
:1004A00008F05DC08D81823008F059C08C8186953E
:1004B000869586958A838C81877089838D81882330
:1004C00031F58A81882F90E0880F991FFC01E85947
:1004D000FF4FA081B1818A81882F90E0880F991FFA
:1004E000FC01E859FF4F0190F081E02D8081482FF9
:1004F0008981282F30E081E090E0022E02C0880F31
:10050000991F0A94E2F7809584238C932AC08D81E9
:10051000813039F58A81882F90E0880F991FFC017E
:10052000E859FF4FA081B1818A81882F90E0880F20
:10053000991FFC01E859FF4F0190F081E02D808167
:10054000482F8981282F30E081E090E0022E02C000
:10055000880F991F0A94E2F7842B8C9302C08FEFC7
:100560008B838B810F900F900F900F900F90CF91F6
:10057000DF910895DF93CF9300D000D00F92CDB7D5
:10058000DEB78C836D831B828C81803208F05DC066
:100590008D81823008F059C08C818695869586952C
:1005A0008A838C81877089838D81882331F58A8144
:1005B000882F90E0880F991FFC01E05AFF4FA0811F
:1005C000B1818A81882F90E0880F991FFC01E05A41
:1005D000FF4F0190F081E02D8081482F8981282FE5
:1005E00030E081E090E0022E02C0880F991F0A944B
:1005F000E2F7809584238C932AC08D81813039F570
:100600008A81882F90E0880F991FFC01E05AFF4FE4
:10061000A081B1818A81882F90E0880F991FFC0109
:10062000E05AFF4F0190F081E02D8081482F8981B1
:10063000282F30E081E090E0022E02C0880F991F41
:100640000A94E2F7842B8C9302C08FEF8B838B810B
:100650000F900F900F900F900F90CF91DF91089512
:10066000DF93CF9300D000D0CDB7DEB78C831B8251
:100670008C81803268F58C818695869586958A83F3
:100680008C81877089838A81882F90E0880F991FD9
:10069000FC01E05AFF4FA081B1818A81882F90E050
:1006A000880F991FFC01E05AFF4F0190F081E02D67
:1006B0008081482F8981282F30E081E090E0022E50
:1006C00002C0880F991F0A94E2F784278C9302C016
:1006D0008FEF8B838B810F900F900F900F90CF91A6
:1006E000DF910895DF93CF9300D000D000D0CDB735
:1006F000DEB78C837E836D831B828C81803228F5EC
:100700008C818695869586958A838C81877089836E
:100710008A81882F90E0880F991FFC01E059FF4FD4
:100720000190F081E02D8081282F30E08981882F91
:1007300090E0A90102C0559547958A95E2F7CA0154
:100740008170ED81FE81808302C08FEF8B838B816E
:1007500026960FB6F894DEBF0FBECDBFCF91DF91C6
:100760000895DF93CF9300D0CDB7DEB78A8381E0C1
:1007700089838A81803228F48A8161E00E94440260
:1007800001C0198289810F900F90CF91DF91089558
:10079000DF93CF9300D0CDB7DEB78A8381E0898322
:1007A0008A81803228F48A8161E00E94BA0201C005
:1007B000198289810F900F90CF91DF910895DF9377
:1007C000CF9300D0CDB7DEB78A8381E089838A8159
:1007D000803228F48A8160E00E94BA0201C0198246
:1007E00089810F900F90CF91DF910895DF93CF9380
:1007F00000D0CDB7DEB78A8381E089838A818032D9
:1008000020F48A810E94300301C0198289810F90EF
:100810000F90CF91DF910895DF93CF930F92CDB7D3
:10082000DEB781E0898380E062E00E94490089812F
:100830000F90CF91DF910895DF93CF9300D00F9267
:10084000CDB7DEB79B838A8381E089838A819B81D0
:10085000009729F08A819B810E94820101C0198240
:1008600089810F900F900F90CF91DF910895DF93C2
:10087000CF9300D0CDB7DEB78A8381E089838A81A8
:10088000803228F48A8161E00E94BA0202C081E0CD
:10089000898389810F900F90CF91DF910895DF9325
:1008A000CF9300D000D0CDB7DEB78A837C836B8333
:1008B00081E089838A81803258F48B819C81009702
:1008C00039F02B813C818A81B9010E94720302C0F8
:1008D00081E0898389810F900F900F900F90CF91C5
:1008E000DF910895DF93CF93CDB7DEB780E10E940B
:1008F000B10381E10E94B10382E10E94B10383E16F
:100900000E94B1038AE10E9437040E940C0488E926
:1009100094E00E941C0480E10E94DF0381E10E94B8
:10092000DF0382E10E94DF0383E10E94DF03FFCF48
:10093000DF93CF93CDB7DEB780917C00882391F40D
:1009400080E10E94C80381E10E94DF0382E10E94EE
:10095000DF0383E10E94DF0380917C008F5F80933F
:100960007C0096C080917C00813091F480E10E94EF
:10097000C80381E10E94C80382E10E94DF0383E192
:100980000E94DF0380917C008F5F80937C0080C099
:1009900080917C00823091F480E10E94C80381E163
:1009A0000E94C80382E10E94C80383E10E94DF0322
:1009B00080917C008F5F80937C006AC080917C0076
:1009C000833091F480E10E94C80381E10E94C80352
:1009D00082E10E94C80383E10E94C80380917C00E9
:1009E0008F5F80937C0054C080917C00843091F4B0
:1009F00080E10E94DF0381E10E94C80382E10E943E
:100A0000C80383E10E94C80380917C008F5F8093BC
:100A10007C003EC080917C00853091F480E10E9492
:100A2000DF0381E10E94DF0382E10E94C80383E1CA
:100A30000E94C80380917C008F5F80937C0028C057
:100A400080917C00863091F480E10E94DF0381E197
:100A50000E94DF0382E10E94DF0383E10E94C8035A
:100A600080917C008F5F80937C0012C080917C001D
:100A7000873071F480E10E94DF0381E10E94DF038F
:100A800082E10E94DF0383E10E94DF0310927C0079
:0A0A9000CF91DF910895F894FFCF95
:100A9A003B003800350032003A003700340031009C
:080AAA00390036003300300072
:00000001FF
