:100000000C942A000C943B090C9468090C9447004A
:100010000C9447000C9447000C9447000C94470044
:100020000C9447000C9447000C9447000C949707DD
:100030000C9447000C9447000C9447000C94470024
:100040000C9447000C9447000C9447000C94470014
:100050000C94470011241FBECFE5D8E0DEBFCDBF12
:1000600011E0A0E6B0E0EAE4FEE102C005900D92E6
:10007000A439B107D9F711E0A4E9B1E001C01D929C
:10008000AC3AB107E1F70E94AE0C0C94230F0C942C
:100090000000EF92FF920F931F937B018C0120E0F1
:1000A00030E040E05FE40E94CB0288238CF0C8017E
:1000B000B70120E030E040E05FE40E94C1010E940F
:1000C000FB029B01AC01205030404040504806C02C
:1000D000C801B7010E94FB029B01AC01B901CA0132
:1000E0001F910F91FF90EF900895A0E0B0E0EBE733
:1000F000F0E00C94EC0EDC012B01FA019C919230A3
:1001000008F439C1EB018881823008F433C194309E
:1001100069F4843009F02FC111969C91119789815F
:10012000981709F428C1A0E6B0E025C1843009F48D
:1001300021C18230A9F4923009F01DC19A01AD01AC
:1001400088E0EA010990AE01E90109929E0181501F
:10015000C1F7E201898111969C918923818308C1AD
:10016000923009F407C112962D903C901397EB0141
:100170008A819B811496AD90BD90CD90DC901797AD
:10018000EC80FD800E811F819101281B390BB90184
:1001900037FF04C066277727621B730B6032710537
:1001A0000CF061C0121613066CF537014801062EDB
:1001B00004C096948794779467940A94D2F721E0C8
:1001C00030E040E050E004C0220F331F441F551FB1
:1001D0006A95D2F721503040404050402E213F21B7
:1001E00040235123211531054105510521F021E01E
:1001F00030E040E050E079018A01E628F72808293C
:1002000019293CC0232BD1F1260E371E350146019A
:10021000062E04C096948794779467940A94D2F734
:1002200021E030E040E050E004C0220F331F441FC3
:10023000551F6A95D2F721503040404050402A2146
:100240003B214C215D21211531054105510521F04E
:1002500021E030E040E050E059016A01A628B728CB
:10026000C828D9280BC0821593052CF01C01AA249C
:10027000BB24650103C0EE24FF24870111969C91E5
:10028000D20111968C91981709F445C0992339F041
:10029000A80197012A193B094C095D0906C0A6016E
:1002A00095012E193F09400B510B57FD08C01182D3
:1002B0003382228224833583468357831DC081E0A5
:1002C00081833382228288279927DC01821B930B4A
:1002D000A40BB50B84839583A683B7830DC0220F2F
:1002E000331F441F551F24833583468357838281E0
:1002F000938101979383828324813581468157813D
:10030000DA01C9010197A109B1098F5F9F4FAF4F72
:10031000BF4328F30BC0918333822282EA0CFB1C7B
:100320000C1D1D1DE482F5820683178383E0808304
:10033000248135814681578157FF1AC0C901AA27F8
:1003400097FDA095BA2F81709070A070B0705695EF
:10035000479537952795822B932BA42BB52B848318
:100360009583A683B7838281938101969383828349
:10037000DF0101C0D201CD01CDB7DEB7E2E10C94BF
:10038000080FA0E2B0E0E7ECF1E00C94F80E69830E
:100390007A838B839C832D833E834F835887E9E048
:1003A000EE2EF12CEC0EFD1ECE010196B7010E943F
:1003B000EC048E010F5E1F4FCE010596B8010E941E
:1003C000EC048A8991E089278A8BC701B801AE01C4
:1003D000475E5F4F0E9475000E941704A096E6E0FA
:1003E0000C94140FA0E2B0E0E8EFF1E00C94F80EEA
:1003F00069837A838B839C832D833E834F835887C5
:10040000F9E0EF2EF12CEC0EFD1ECE010196B701A6
:100410000E94EC048E010F5E1F4FCE010596B801BD
:100420000E94EC04C701B801AE01475E5F4F0E9415
:1004300075000E941704A096E6E00C94140FA8E142
:10044000B0E0E5E2F2E00C94F40E69837A838B83EA
:100450009C832D833E834F835887B9E0EB2EF12C8C
:10046000EC0EFD1ECE010196B7010E94EC048E0138
:100470000F5E1F4FCE010596B8010E94EC0429853E
:10048000223008F47EC03989323010F4B8017CC0C3
:100490008A859A8989278A87243011F0223031F49D
:1004A000231709F06EC060E670E06EC0343039F496
:1004B0001D861E861F86188A1C861B8604C0323045
:1004C00021F484E08987B7015FC02B853C858B8947
:1004D0009C89281B390B3C872B87ED84FE840F8574
:1004E0001889AD88BE88CF88D88CEA14FB040C0527
:1004F0001D0540F4EE0CFF1C001F111F2150304061
:100500003C872B8720E030E040E050E080E090E046
:10051000A0E0B0E460E070E0EA14FB040C051D0507
:1005200040F0282B392B4A2B5B2BEA18FB080C09CF
:100530001D09B695A79597958795EE0CFF1C001F92
:10054000111F6F5F7F4F6F31710531F7DA01C901FC
:100550008F779070A070B07080349105A105B105BF
:1005600061F427FD0AC0E114F1040105110529F029
:10057000205C3F4F4F4F5F4F20782D873E874F873E
:10058000588BBE01675F7F4FCB010E9417046896AE
:10059000EAE00C94100FA8E1B0E0E1EDF2E00C9479
:1005A000F80E69837A838B839C832D833E834F83EC
:1005B000588789E0E82EF12CEC0EFD1ECE01019645
:1005C000B7010E94EC048E010F5E1F4FCE0105960D
:1005D000B8010E94EC048985823040F0898982301C
:1005E00028F0C701B8010E94640501C08FEF68962A
:1005F000E6E00C94140FACE0B0E0E1E0F3E00C9422
:10060000FC0E69837A838B839C83CE010196BE01A5
:100610006B5F7F4F0E94EC048D81823061F18230EC
:1006200050F1843021F48E81882351F12EC02F8126
:10063000388537FD20C06E812F3131051CF06623CF
:10064000F9F023C08EE190E0821B930B29853A8557
:100650004B855C8504C056954795379527958A95B7
:10066000D2F76623B1F050954095309521953F4FD4
:100670004F4F5F4F0EC020E030E040E050E009C037
:100680002FEF3FEF4FEF5FE704C020E030E040E0A6
:1006900050E8B901CA012C96E2E00C94180FA8E0CA
:1006A000B0E0E5E5F3E00C94F40E7B018C016115FC
:1006B00071058105910519F482E0898360C083E0AA
:1006C00089838EE1C82ED12CDC82CB82ED82FE8222
:1006D0000F831887C801B7010E94C803FC01319736
:1006E000F7FF3BC0222733272E1B3F0B5701680122
:1006F000022E04C0D694C794B794A7940A94D2F754
:1007000040E050E060E070E081E090E0A0E0B0E028
:1007100004C0880F991FAA1FBB1F2A95D2F7019703
:10072000A109B1098E219F21A023B1230097A10522
:10073000B10521F041E050E060E070E04A295B291A
:100740006C297D294D835E836F8378878EE190E0ED
:100750008E1B9F0B9C838B8312C0309781F00E2ED3
:1007600004C0EE0CFF1C001F111F0A94D2F7ED828B
:10077000FE820F831887CE1ADF0ADC82CB821A82B0
:10078000CE0101960E9417042896EAE00C94100FFF
:10079000EF92FF920F931F937B018C0180E0E8168C
:1007A00080E0F80681E0080780E0180788F48FEF02
:1007B000E816F1040105110531F028F088E090E019
:1007C000A0E0B0E017C080E090E0A0E0B0E012C090
:1007D00080E0E81680E0F80680E0080781E018076E
:1007E00028F088E190E0A0E0B0E004C080E190E073
:1007F000A0E0B0E020E230E040E050E0281B390B00
:100800004A0B5B0B04C016950795F794E7948A95FD
:10081000D2F7F701E859FF4F8081281B31094109C0
:100820005109C9011F910F91FF90EF900895DF9238
:10083000EF92FF920F931F93FC01E480F5800681F5
:100840001781D1808081823048F480E090E0A0E17F
:10085000B0E0E82AF92A0A2B1B2BA5C0843009F442
:100860009FC0823021F4EE24FF24870105C0E114EB
:10087000F1040105110519F4E0E0F0E096C0628191
:1008800073819FEF623879070CF05BC022E83FEF7D
:10089000261B370B2A3131052CF020E030E040E0F8
:1008A00050E02AC0B801A701022E04C076956795D2
:1008B000579547950A94D2F781E090E0A0E0B0E028
:1008C00004C0880F991FAA1FBB1F2A95D2F7019752
:1008D000A109B1098E219F21A023B1230097A10571
:1008E000B10521F081E090E0A0E0B0E09A01AB0119
:1008F000282B392B4A2B5B2BDA01C9018F7790709B
:10090000A070B07080349105A105B10539F427FFBE
:1009100009C0205C3F4F4F4F5F4F04C0215C3F4FE9
:100920004F4F5F4FE0E0F0E02030A0E03A07A0E05A
:100930004A07A0E45A0710F0E1E0F0E079018A01EB
:1009400027C06038710564F5FB01E158FF4FD801FD
:10095000C7018F779070A070B07080349105A105A9
:10096000B10539F4E7FE0DC080E490E0A0E0B0E00E
:1009700004C08FE390E0A0E0B0E0E80EF91E0A1F8B
:100980001B1F17FF05C016950795F794E79431963E
:1009900087E016950795F794E7948A95D1F705C0F7
:1009A000EE24FF248701EFEFF0E06E2F67956627B6
:1009B0006795902F9F77D794DD24D7948E2F8695B7
:1009C000492F462B582F5D29B701CA011F910F915E
:1009D000FF90EF90DF900895FC01DB014081518191
:1009E0002281622F6F7770E0221F2227221F9381BE
:1009F000892F880F822B282F30E0991F9927991F64
:100A000011969C93119721153105A9F541155105B2
:100A10006105710511F482E037C082E89FEF1396FB
:100A20009C938E9312979A01AB0167E0220F331FBC
:100A3000441F551F6A95D1F783E08C930DC0220F98
:100A4000331F441F551F12968D919C911397019748
:100A500013969C938E931297203080E0380780E0A5
:100A6000480780E4580758F314962D933D934D930F
:100A70005C93179708952F3F310579F4411551057F
:100A80006105710519F484E08C93089564FF03C037
:100A900081E08C9312C01C9210C02F5730401396E7
:100AA0003C932E93129783E08C9387E0440F551F5D
:100AB000661F771F8A95D1F7706414964D935D93E6
:100AC0006D937C93179708951F93DC01FB019C9114
:100AD000923008F447C08081823008F443C09430DB
:100AE00051F411961C91843099F58181682F70E042
:100AF000611B71093FC0843021F0923031F48230A3
:100B0000B9F18181882389F12DC011961C9111972B
:100B10008230F1F081811817D9F412962D913C9111
:100B20001397828193818217930794F028173907CE
:100B3000BCF014968D919D910D90BC91A02D2481B7
:100B4000358146815781281739074A075B0718F412
:100B5000112341F00AC082179307A407B50740F498
:100B6000112319F061E070E005C06FEF7FEF02C064
:100B700060E070E0CB011F910895DF93CF9300D028
:100B800000D0CDB7DEB78A8319828A81843008F01D
:100B90005EC08A81282F30E03C832B838B819C812F
:100BA0008130910521F12B813C81223031052CF4DB
:100BB0008B819C81009761F047C02B813C81223062
:100BC000310521F18B819C818330910571F13CC00D
:100BD000A3E5B0E0E3E5F0E08081877F8C93A3E5B7
:100BE000B0E0E3E5F0E080818F7B8C9332C0A3E539
:100BF000B0E0E3E5F0E08081877F8C93A3E5B0E08F
:100C0000E3E5F0E0808180648C9323C0A3E5B0E04D
:100C1000E3E5F0E0808188608C93A3E5B0E0E3E554
:100C2000F0E080818F7B8C9314C0A3E5B0E0E3E516
:100C3000F0E0808188608C93A3E5B0E0E3E5F0E02C
:100C4000808180648C9305C081E0898302C081E04B
:100C5000898389810F900F900F900F90CF91DF9132
:100C60000895DF93CF9300D00F92CDB7DEB78B837B
:100C70001A828B818830E0F48B8180939701809178
:100C800098018130B9F4E3E5F0E0808189838981BE
:100C9000887F8983909197018981892B8983A3E536
:100CA000B0E0E3E5F0E090818981892B8C9302C06C
:100CB00081E08A838A810F900F900F90CF91DF910E
:100CC0000895DF93CF930F92CDB7DEB71982A9E5D0
:100CD000B0E0E9E5F0E0808181608C93AFE5B0E0C1
:100CE000EFE5F0E0808180688C9389810F90CF914F
:100CF000DF910895DF93CF930F92CDB7DEB71982BE
:100D0000A9E5B0E0E9E5F0E080818E7F8C938981F0
:100D10000F90CF91DF910895DF93CF930F92CDB7CE
:100D2000DEB71982A3E5B0E0E3E5F0E090818091C1
:100D30009701892B8C9381E08093980189810F9092
:100D4000CF91DF910895DF93CF930F92CDB7DEB7A8
:100D50001982A3E5B0E0E3E5F0E08081887F8C9321
:100D60001092980189810F90CF91DF910895DF93C0
:100D7000CF93CDB7DEB72D970FB6F894DEBF0FBE79
:100D8000CDBF6A877B878C879D8719868A859B85DF
:100D9000AC85BD85883823E1920720E0A20720E0DA
:100DA000B20708F0A2C080919701882F90E0880FC9
:100DB000991FFC01E859FE4F80819181CC01A0E090
:100DC000B0E0BC01CD010E944F03DC01CB01BC01AE
:100DD000CD0120E030E04AEF55E40E941F02DC0123
:100DE000CB0189839A83AB83BC836A857B858C85A1
:100DF0009D850E944F03DC01CB01BC01CD012981FF
:100E00003A814B815C810E941F02DC01CB01BC0155
:100E1000CD010E944900DC01CB018D839E83AF830D
:100E2000B8878D819E81AF81B885803021E092079F
:100E300020E0A20720E0B20721F481E0809399012D
:100E400056C08D819E81AF81B8858F3F9105A105E8
:100E5000B10509F0A8F42D813E8180E091E0821B6C
:100E6000930B90939B0180939A01E2E5F0E08091CF
:100E70009A0190919B01808381E08093990137C012
:100E80008D819E81AF81B885813021E0920720E07D
:100E9000A20720E0B20758F18D819E81AF81B8850D
:100EA000892F9A2FAB2FBB27809399018D819E812B
:100EB0009C01307080E091E0821B930B90939B012A
:100EC00080939A01E2E5F0E080919A0190919B0174
:100ED000808380919A0190919B01009741F08091CD
:100EE00099018F5F8093990102C081E0898789858C
:100EF0002D960FB6F894DEBF0FBECDBFCF91DF9118
:100F00000895DF93CF9300D0CDB7DEB79A8389835E
:100F100089819A81009731F089819A819093950116
:100F2000809394010F900F90CF91DF9108951F92BD
:100F30000F920FB60F9211242F933F934F935F930D
:100F40006F937F938F939F93AF93BF93EF93FF9391
:100F5000DF93CF93CDB7DEB7809196018F5F8093FB
:100F6000960190919601809199019817A1F4809132
:100F7000940190919501009771F010929601E09183
:100F80009401F09195010995E2E5F0E080919A01D4
:100F900090919B018083CF91DF91FF91EF91BF9161
:100FA000AF919F918F917F916F915F914F913F9101
:100FB0002F910F900FBE0F901F901895DF93CF9336
:100FC000CDB7DEB729970FB6F894DEBF0FBECDBF01
:100FD0008A836B8381E089838A81833008F015C11D
:100FE0008B81843008F011C18A81882309F06BC09D
:100FF0008B81282F30E03987288788859985813033
:10100000910521F128853985223031052CF4888518
:101010009985009761F047C02885398522303105D0
:1010200021F1888599858330910571F13CC0A5E552
:10103000B0E0E5E5F0E080818E7F8C93A5E5B0E03F
:10104000E5E5F0E080818D7F8C932EC0A5E5B0E0D2
:10105000E5E5F0E0808181608C93A5E5B0E0E5E511
:10106000F0E080818D7F8C931FC0A5E5B0E0E5E5C1
:10107000F0E080818E7F8C93A5E5B0E0E5E5F0E0BF
:10108000808182608C9310C0A5E5B0E0E5E5F0E0DA
:10109000808181608C93A5E5B0E0E5E5F0E080819A
:1010A00082608C9301C01982ABE5B0E0EBE5F0E023
:1010B000808180648C93AAE5B0E0EAE5F0E080816D
:1010C00080648C93A3C08A81813009F06BC08B81CE
:1010D000282F30E03F832E838E819F8181309105C0
:1010E00021F12E813F81223031052CF48E819F81A8
:1010F000009761F047C02E813F812230310521F1F8
:101100008E819F818330910571F13CC0A5E5B0E0EF
:10111000E5E5F0E080818B7F8C93A5E5B0E0E5E527
:10112000F0E08081877F8C932EC0A5E5B0E0E5E5F7
:10113000F0E0808184608C93A5E5B0E0E5E5F0E027
:101140008081877F8C931FC0A5E5B0E0E5E5F0E0E6
:1011500080818B7F8C93A5E5B0E0E5E5F0E08081B0
:1011600088608C9310C0A5E5B0E0E5E5F0E08081F3
:1011700084608C93A5E5B0E0E5E5F0E080818860CF
:101180008C9301C01982ABE5B0E0EBE5F0E0808123
:1011900080688C93AAE5B0E0EAE5F0E080818068A1
:1011A0008C9334C08A81823089F58B81282F30E07E
:1011B0003D832C838C819D818230910531F02C817F
:1011C0003D812330310549F010C0A4E5B0E0E4E5ED
:1011D000F0E080818F7B8C9309C0A4E5B0E0E4E56A
:1011E000F0E0808180648C9301C01982ABE5B0E0AF
:1011F000EBE5F0E0808180628C93AAE5B0E0EAE55F
:10120000F0E0808180628C9301C01982AFE5B0E08C
:10121000EFE5F0E0808180688C93898129960FB694
:10122000F894DEBF0FBECDBFCF91DF910895DF935D
:10123000CF9300D0CDB7DEB79A83898389819A8115
:1012400090939D0180939C010F900F90CF91DF911F
:101250000895DF93CF9300D0CDB7DEB79A8389830B
:1012600089819A8190939F0180939E010F900F90A6
:10127000CF91DF9108951F920F920FB60F92112414
:101280002F933F934F935F936F937F938F939F938E
:10129000AF93BF93EF93FF93DF93CF93CDB7DEB7B9
:1012A000E0919C01F0919D010995CF91DF91FF9113
:1012B000EF91BF91AF919F918F917F916F915F91CE
:1012C0004F913F912F910F900FBE0F901F90189547
:1012D0001F920F920FB60F9211242F933F934F93AB
:1012E0005F936F937F938F939F93AF93BF93EF938E
:1012F000FF93DF93CF93CDB7DEB7E0919E01F091DE
:101300009F010995CF91DF91FF91EF91BF91AF912F
:101310009F918F917F916F915F914F913F912F910D
:101320000F900FBE0F901F901895DF93CF9300D0B2
:101330000F92CDB7DEB78A836B8319828A8184309E
:1013400020F58B81823008F58B81882369F48A81AE
:10135000882F90E0880F991FFC01E458FE4F019000
:10136000F081E02D108213C08B81813081F48A815D
:10137000882F90E0880F991FFC01E458FE4F0190E0
:10138000F081E02D8FEF808302C08FEF8983898108
:101390000F900F900F90CF91DF910895DF93CF932F
:1013A00000D00F92CDB7DEB78A836B8319828A8112
:1013B000843070F48A81882F90E0880F991FFC0197
:1013C000EC58FE4F0190F081E02D8B81808302C0AC
:1013D0008FEF898389810F900F900F90CF91DF91CC
:1013E0000895DF93CF9300D000D0CDB7DEB78A83C6
:1013F0007C836B8319828A81843080F48A81882F70
:1014000090E0880F991FFC01EC57FE4F0190F0818E
:10141000E02D8081EB81FC81808302C08FEF898386
:1014200089810F900F900F900F90CF91DF910895C9
:10143000DF93CF9300D000D00F92CDB7DEB78C836F
:101440006D831B828C81803208F05DC08D8182307B
:1014500008F059C08C818695869586958A838C8103
:10146000877089838D81882331F58A81882F90E068
:10147000880F991FFC01E458FE4FA081B1818A8139
:10148000882F90E0880F991FFC01E458FE4F0190CF
:10149000F081E02D8081482F8981282F30E081E084
:1014A00090E0022E02C0880F991F0A94E2F78095FF
:1014B00084238C932AC08D81813039F58A81882FCD
:1014C00090E0880F991FFC01E458FE4FA081B18184
:1014D0008A81882F90E0880F991FFC01E458FE4F05
:1014E0000190F081E02D8081482F8981282F30E004
:1014F00081E090E0022E02C0880F991F0A94E2F763
:10150000842B8C9302C08FEF8B838B810F900F9075
:101510000F900F900F90CF91DF910895DF93CF93AD
:1015200000D000D00F92CDB7DEB78C836D831B82C5
:101530008C81803208F05DC08D81823008F059C006
:101540008C818695869586958A838C818770898320
:101550008D81882331F58A81882F90E0880F991F2B
:10156000FC01EC58FE4FA081B1818A81882F90E068
:10157000880F991FFC01EC58FE4F0190F081E02D7F
:101580008081482F8981282F30E081E090E0022E71
:1015900002C0880F991F0A94E2F7809584238C93E8
:1015A0002AC08D81813039F58A81882F90E0880F9B
:1015B000991FFC01EC58FE4FA081B1818A81882FD0
:1015C00090E0880F991FFC01EC58FE4F0190F081CC
:1015D000E02D8081482F8981282F30E081E090E044
:1015E000022E02C0880F991F0A94E2F7842B8C9375
:1015F00002C08FEF8B838B810F900F900F900F9015
:101600000F90CF91DF910895DF93CF9300D000D05A
:10161000CDB7DEB78C831B828C81803268F58C81DC
:101620008695869586958A838C81877089838A8141
:10163000882F90E0880F991FFC01EC58FE4FA08185
:10164000B1818A81882F90E0880F991FFC01EC58A6
:10165000FE4F0190F081E02D8081482F8981282F55
:1016600030E081E090E0022E02C0880F991F0A94BA
:10167000E2F784278C9302C08FEF8B838B810F90CE
:101680000F900F900F90CF91DF910895DF93CF933C
:1016900000D000D000D0CDB7DEB78C837E836D83C1
:1016A0001B828C81803228F58C8186958695869563
:1016B0008A838C81877089838A81882F90E0880F44
:1016C000991FFC01EC57FE4F0190F081E02D8081C5
:1016D000282F30E08981882F90E0A90102C055951C
:1016E00047958A95E2F7CA018170ED81FE8180837A
:1016F00002C08FEF8B838B8126960FB6F894DEBFE6
:101700000FBECDBFCF91DF910895DF93CF9300D06F
:10171000CDB7DEB78A8381E089838A81803228F45D
:101720008A8161E00E94180A01C0198289810F90A4
:101730000F90CF91DF910895DF93CF9300D0CDB775
:10174000DEB78A8381E089838A81803228F48A81A6
:1017500061E00E948E0A01C0198289810F900F906A
:10176000CF91DF910895DF93CF9300D0CDB7DEB74F
:101770008A8381E089838A81803228F48A8160E0CB
:101780000E948E0A01C0198289810F900F90CF911B
:10179000DF910895DF93CF9300D0CDB7DEB78A8372
:1017A00081E089838A81803220F48A810E94040B3F
:1017B00001C0198289810F900F90CF91DF91089518
:1017C000DF93CF930F92CDB7DEB7198280E00E94EE
:1017D000BD0584E00E9431060E94610689810F9058
:1017E000CF91DF910895DF93CF9300D000D0CDB794
:1017F000DEB769837A838B839C8389819A81AB81ED
:10180000BC81BC01CD010E94B7060E948C060F90DE
:101810000F900F900F90CF91DF910895DF93CF93AA
:1018200000D00F92CDB7DEB79B838A8319828A815D
:101830009B81009729F08A819B810E94810702C0C9
:1018400081E0898389810F900F900F90CF91DF9174
:101850000895DF93CF930F92CDB7DEB781E08983F0
:1018600080E062E00E94DE0781E062E00E94DE0725
:1018700089810F90CF91DF910895DF93CF9300D0AE
:101880000F92CDB7DEB79B838A8381E089838A81FB
:101890009B81009729F08A819B810E94170901C0D2
:1018A000198289810F900F900F90CF91DF91089549
:1018B000DF93CF9300D00F92CDB7DEB79B838A839F
:1018C00081E089838A819B81009729F08A819B81AD
:1018D0000E94290901C0198289810F900F900F90F1
:1018E000CF91DF910895DF93CF9300D0CDB7DEB7CE
:1018F0008A8381E089838A81803228F48A8161E049
:101900000E948E0A02C081E0898389810F900F9026
:10191000CF91DF910895DF93CF9300D000D0CDB762
:10192000DEB78A837C836B8381E089838A818032FE
:1019300058F48B819C81009739F02B813C818A81FE
:10194000B9010E94460B02C081E0898389810F9012
:101950000F900F900F90CF91DF910895DF93CF9369
:10196000CDB7DEB780E10E94850B81E10E94850B37
:1019700082E10E94850B83E10E94850B8AE10E942F
:10198000730C8BE10E94730C0E94290C0E94E00BE7
:1019900087EE9CE00E943D0C8AE99EE00E94580C74
:1019A00080E10E94B30B81E10E94B30B82E10E94AF
:1019B000B30B83E10E94B30B64E670E080E090E03B
:1019C0000E94F30B8CE39DE00E940E0CFFCFDF938F
:1019D000CF93CDB7DEB78091A3018F5F8093A30132
:1019E0008091A301813021F481E08093A20141C064
:1019F0008091A301823021F482E08093A20139C05A
:101A00008091A301833021F483E08093A20131C04F
:101A10008091A301843021F484E08093A20129C045
:101A20008091A301853021F485E08093A20121C03B
:101A30008091A301863021F486E08093A20119C031
:101A40008091A301873021F487E08093A20111C027
:101A50008091A301883021F488E08093A20109C01D
:101A60008091A301893029F41092A30181E0809331
:101A7000A201CF91DF910895DF93CF93CDB7DEB769
:101A80008091A4019091A501A091A601B091A70118
:101A90000196A11DB11D8093A4019093A501A0936F
:101AA000A601B093A7012091A4013091A501409116
:101AB000A6015091A70180918C0190918D01A09178
:101AC0008E01B0918F01281739074A075B0709F08B
:101AD00089C08091A201813069F480E10E94CA0B23
:101AE00081E10E94B30B82E10E94B30B83E10E946B
:101AF000B30B1DC18091A201823069F480E10E9484
:101B0000CA0B81E10E94CA0B82E10E94B30B83E100
:101B10000E94B30B0CC18091A201833069F480E173
:101B20000E94CA0B81E10E94CA0B82E10E94CA0B8B
:101B300083E10E94B30BFBC08091A201843069F461
:101B400080E10E94CA0B81E10E94CA0B82E10E94DF
:101B5000CA0B83E10E94CA0BEAC08091A2018530C2
:101B600069F480E10E94B30B81E10E94CA0B82E11B
:101B70000E94CA0B83E10E94CA0BD9C08091A201C6
:101B8000863069F480E10E94B30B81E10E94B30BBF
:101B900082E10E94CA0B83E10E94CA0BC8C08091F7
:101BA000A201873069F480E10E94B30B81E10E94B9
:101BB000B30B82E10E94B30B83E10E94CA0BB7C052
:101BC0008091A201883009F0B2C080E10E94B30B7D
:101BD00081E10E94B30B82E10E94B30B83E10E947A
:101BE000B30BA5C02091A4013091A5014091A6019D
:101BF0005091A7018091900190919101A091920143
:101C0000B0919301281739074A075B0709F08FC085
:101C10008091A201813069F480E10E94CA0B81E1C8
:101C20000E94B30B82E10E94B30B83E10E94B30BCD
:101C300076C08091A201823069F480E10E94CA0BD3
:101C400081E10E94CA0B82E10E94B30B83E10E94F2
:101C5000B30B65C08091A201833069F480E10E94DA
:101C6000CA0B81E10E94CA0B82E10E94CA0B83E188
:101C70000E94B30B54C08091A201843069F480E1CA
:101C80000E94CA0B81E10E94CA0B82E10E94CA0B2A
:101C900083E10E94CA0B43C08091A201853069F4A0
:101CA00080E10E94B30B81E10E94CA0B82E10E9495
:101CB000CA0B83E10E94CA0B32C08091A201863018
:101CC00069F480E10E94B30B81E10E94B30B82E1D1
:101CD0000E94CA0B83E10E94CA0B21C08091A2011D
:101CE000873069F480E10E94B30B81E10E94B30B5D
:101CF00082E10E94B30B83E10E94CA0B10C0809165
:101D0000A201883061F480E10E94B30B81E10E945E
:101D1000B30B82E10E94B30B83E10E94B30B1092DC
:101D2000A4011092A5011092A6011092A701CF91D3
:101D3000DF910895DF93CF93CDB7DEB780918C010B
:101D400090918D01A0918E01B0918F01823091050B
:101D5000A105B105C1F489E090E0A0E0B0E0809376
:101D60008C0190938D01A0938E01B0938F018AE036
:101D700090E0A0E0B0E08093900190939101A09357
:101D80009201B093930180918C0190918D01A0916B
:101D90008E01B0918F010197A109B10980938C0147
:101DA00090938D01A0938E01B0938F01809190014B
:101DB00090919101A0919201B09193010196A11D82
:101DC000B11D8093900190939101A0939201B093E3
:101DD0009301CF91DF9108952F923F924F925F929E
:101DE0006F927F928F929F92AF92BF92CF92DF922B
:101DF000EF92FF920F931F93CF93DF93CDB7DEB790
:101E0000CA1BDB0B0FB6F894DEBF0FBECDBF099423
:101E10002A88398848885F846E847D848C849B847A
:101E2000AA84B984C884DF80EE80FD800C811B8188
:101E3000AA81B981CE0FD11D0FB6F894DEBF0FBEB7
:0A1E4000CDBFED010895F894FFCF27
:101E4A000000000000000000000102020303030377
:101E5A000404040404040404050505050505050530
:101E6A000505050505050505060606060606060610
:101E7A0006060606060606060606060606060606F8
:101E8A0006060606060606060707070707070707E0
:101E9A0007070707070707070707070707070707C8
:101EAA0007070707070707070707070707070707B8
:101EBA0007070707070707070707070707070707A8
:101ECA000707070707070707080808080808080890
:101EDA000808080808080808080808080808080878
:101EEA000808080808080808080808080808080868
:101EFA000808080808080808080808080808080858
:101F0A000808080808080808080808080808080847
:101F1A000808080808080808080808080808080837
:101F2A000808080808080808080808080808080827
:101F3A000808080808080808080808080808080817
:101F4A0008080808080808080000010008004000FE
:101F5A00000100043B003800350032003A00370027
:101F6A003400310039003600330030000900000027
:041F7A000A00000059
:00000001FF
